:020000041004E6
:1000000000600020414D04103150041033500410A2
:10001000AA5555AA45554C420000000000000000BA
:100020000000000000000000000000003550041037
:1000300000000000000000008F4B04103750041037
:100040003F500410914B041000000000000000001D
:1000500067500410934B04106F5004109F4B041012
:100060000000000000000000000000000000000090
:1000700000000000A14B0410A34B0410A54B04107A
:1000800000000000954B0410974B0410994B04108E
:100090009B4B04109D4B04108B4B04108D4B041094
:1000A0000000000000000000000000000000000050
:1000B0000000000000000000000000000000000040
:1000C000EFF31482EFF30981002080F31488BFF36B
:1000D0006F8FF0B543464C4655465E466746F8B4CA
:1000E000164CEFF30883236006B4154C2068154CBA
:1000F0002060154C2068154C2060154C2068154C6C
:100100002060154C276800202060BFF34F8F30BF60
:1001100027600A4C246884F3088882B003BCF8BCCA
:100120009846A146AA46B346BC46F0BC04BC80F340
:10013000098881F31488BFF36F8F104708000020EF
:1001400004ED00E05008002024ED00E04C08002001
:1001500000E200E0540800200800204002B471468C
:1001600049084900095C49008E4402BC7047C046FA
:10017000002243088B4274D303098B425FD3030AE6
:100180008B4244D3030B8B4228D3030C8B420DD3F9
:10019000FF22090212BA030C8B4202D31212090287
:1001A00065D0030B8B4219D300E0090AC30B8B42C5
:1001B00001D3CB03C01A5241830B8B4201D38B0373
:1001C000C01A5241430B8B4201D34B03C01A524118
:1001D000030B8B4201D30B03C01A5241C30A8B425B
:1001E00001D3CB02C01A5241830A8B4201D38B0246
:1001F000C01A5241430A8B4201D34B02C01A5241EA
:10020000030A8B4201D30B02C01A5241CDD2C3095B
:100210008B4201D3CB01C01A524183098B4201D3D7
:100220008B01C01A524143098B4201D34B01C01AC2
:10023000524103098B4201D30B01C01A5241C3083A
:100240008B4201D3CB00C01A524183088B4201D3A9
:100250008B00C01A524143088B4201D34B00C01A95
:100260005241411A00D20146524110467047FFE701
:1002700001B5002000F0F0F802BDC0460029F7D01B
:1002800076E7704703460B437FD4002243088B4236
:1002900074D303098B425FD3030A8B4244D3030B0D
:1002A0008B4228D3030C8B420DD3FF22090212BAD2
:1002B000030C8B4202D31212090265D0030B8B424E
:1002C00019D300E0090AC30B8B4201D3CB03C01A38
:1002D0005241830B8B4201D38B03C01A5241430B13
:1002E0008B4201D34B03C01A5241030B8B4201D303
:1002F0000B03C01A5241C30A8B4201D3CB02C01A6E
:100300005241830A8B4201D38B02C01A5241430AE5
:100310008B4201D34B02C01A5241030A8B4201D3D4
:100320000B02C01A5241CDD2C3098B4201D3CB017B
:10033000C01A524183098B4201D38B01C01A52412A
:1003400043098B4201D34B01C01A524103098B422E
:1003500001D30B01C01A5241C3088B4201D3CB0019
:10036000C01A524183088B4201D38B00C01A5241FC
:1003700043088B4201D34B00C01A5241411A00D2AC
:1003800001465241104670475DE0CA0F00D0494215
:10039000031000D34042534000229C4603098B4285
:1003A0002DD3030A8B4212D3FC22890112BA030A0D
:1003B0008B420CD3890192118B4208D3890192118F
:1003C0008B4204D389013AD0921100E08909C30914
:1003D0008B4201D3CB01C01A524183098B4201D316
:1003E0008B01C01A524143098B4201D34B01C01A01
:1003F000524103098B4201D30B01C01A5241C30879
:100400008B4201D3CB00C01A524183088B4201D3E7
:100410008B00C01A5241D9D243088B4201D34B0002
:10042000C01A5241411A00D20146634652415B1044
:10043000104601D34042002B00D549427047634625
:100440005B1000D3404201B5002000F005F802BD6A
:100450000029F8D016E770477047C0468446101C44
:1004600062468C46191C634600E0C0461FB501F089
:10047000B3FE002801D40021C8421FBD10B501F011
:100480000DFE4042013010BD10B501F0A5FE002860
:1004900001DB002010BD012010BDC04610B501F0E9
:1004A0009BFE002801DD002010BD012010BDC046CC
:1004B00010B501F02DFE002801DC002010BD012048
:1004C00010BDC04610B501F023FE002801DA00205F
:1004D00010BD012010BDC0468446081C6146FFE7E0
:1004E0001FB500F0E3FB002801D40021C8421FBD66
:1004F00010B500F075FB4042013010BD10B500F0A2
:10050000D5FB002801DB002010BD012010BDC04636
:1005100010B500F0CBFB002801DD002010BD01204C
:1005200010BDC04610B500F081FB002801DC0020A2
:1005300010BD012010BDC04610B500F077FB0028AB
:1005400001DA002010BD012010BDC0469E2110B56B
:10055000C905041CFFF7F0FF002803D1201C00F0A0
:10056000A3FE10BD9E21201CC90500F001FD00F076
:100570009BFE80231B069C466044F2E770B5002278
:100580000C4B04000D00FFF79DFF002804D1200054
:10059000290002F039FC70BD064B00222000290022
:1005A00002F0FCF802F030FC80231B069C466044FD
:1005B000F1E7C0460000E041437802781B021A438D
:1005C0008378C0781B041343000618437047C04665
:1005D000030A4B70030C8B70030E0870CB707047CE
:1005E00003005A78007812020243987819790004BF
:1005F0000243D878000610435A7912020A439979C7
:1006000009040A43D979090611437047030A537054
:10061000030C9370030ED3700B0A53710B0C937180
:100620000B0E10701171D3717047C046F0B5C646FD
:100630004E024702760A7B0A4400C50FF7004800C5
:10064000984600B5240E2A00DB00000EC90FBC46F8
:100650008D4267D0221A002A00DCA5E000283AD19A
:10066000002F00D193E0511E002900D0BCE00124EE
:10067000DB1B5A0146D59B019E09300002F016FD96
:1006800005388640844200DD9DE0041B32002020B6
:100690000134E240041BA64033005E1EB341002437
:1006A00013435A0704D00F221A40042A00D00433FF
:1006B0005A0129D50134FF2C00D181E02A009B0189
:1006C0005B0AE4B25B02E405580AD20720431043F8
:1006D00004BC9046F0BDFF2CE3D080213800C90453
:1006E000084384461B2A00DD82E020206146D14079
:1006F000821A604690400200501E82410A439B1AB3
:100700005A01B8D45A07CED1DE082A00FF2C3AD1BC
:10071000002E00D1AEE08023DB0333435B025B0A93
:10072000FF24CFE7211A002952DD002831D0FF2C09
:10073000B7D080203E00C0040643B4461B2900DD2C
:10074000AAE020266046C840711A66468E403100F5
:100750004E1EB14101435B185901D3D50134FF2C22
:1007600000D187E0012278491A405B080B4013430F
:1007700097E7002C00D0A7E0002B00D0B6E03B1E8E
:1007800062D10026002273025B0AE4B29AE71400E9
:1007900087E7002F4DD0481E002857D1634401241D
:1007A0005A01AFD50224DDE7002A24D1621CD2B25F
:1007B000012ADEDDDE1B720135D5FE1A0D005CE775
:1007C0002A0000237EE73300604A241A134068E7BA
:1007D000002963D1611CC8B201284EDDFF2949D030
:1007E00063445B080C005CE7FF2A41D00A0079E70C
:1007F00001229B1A84E7002C1DD0FF2822D08024E0
:10080000E404524223431B2A00DD8AE01C00202519
:10081000D440AA1A93405A1E9341234362460400CF
:10082000D31A0D0025E7002E00D026E70022002471
:10083000A9E70C0035E7002B4DD0D243002AEDD0BC
:10084000FF28E0D16346FF240D002AE7FF290FD0DF
:10085000010073E7002B61D0FF24002F00D120E7B7
:1008600080224146D203114202D0164200D13B0001
:10087000FF2416E7FF24002324E7002CEAD1002BF5
:1008800058D0002F00D10CE763445A0100D439E757
:100890002E4A0C00134004E701215CE7002C1ED116
:1008A000002B40D0C94300290BD0FF2836D01B298C
:1008B00047DC1C002026CC40711A8B40591E8B410E
:1008C00023436344040047E7002B18D13B1E2DD07F
:1008D0000D00FF24E5E63B0004000D00E1E6FF28E3
:1008E0001CD08024E40449422343E0E7002F00D1D8
:1008F000D7E6DE1B72011FD5FB1A0D00D1E6FF24DF
:10090000002F00D1CDE680224046D2031042AFD066
:100910001642ADD13B000D00FF24C2E66346FF2422
:10092000BFE601237AE73B000400BAE680260022F6
:10093000F603F0E63B00B4E6331E00D0E2E6002208
:1009400021E70123BDE7C046FFFFFF7DFFFFFFFB5F
:10095000F0B557464E46DE464546E0B544024300F4
:10096000C60F83B00F1C640A1B0EB24653D0FF2B78
:1009700027D08022E400D20414437F2252429046C2
:100980009844002399469B467D027800FB0F6D0A30
:10099000000E009324D0FF2846D080230021ED00D4
:1009A000DB041D437F384746381A4F460F43BF00CC
:1009B000B9463300009A874F53404A46BA580193CC
:1009C0009746002C4ED108239946F7339846FD3BB5
:1009D0009B467D027800FB0F6D0A000E0093DAD172
:1009E000002D26D1002001213300009A7A4F534078
:1009F0004246101A4A460A439200BA581D009746CA
:100A0000009B2C009A468B465B46022B31D1534605
:100A1000FF21002438E0002C17D10423994600233D
:100A2000984601339B46AFE7FF20002D0BD10221F2
:100A3000DAE7280002F03AFB431F9D4076235B4231
:100A4000181A0021AFE70321ADE7200002F02EFBCA
:100A5000431F9C4076235B421B1A9846002399460D
:100A60009B4691E70C239946F3339846FC3B9B4603
:100A70008AE7032B00D1A5E05546012B00D081E089
:100A80000123002100242B406402C905600ADB0712
:100A90000843184303B03CBC90469946A246AB4677
:100AA000F0BD80240023E403FF21EDE7FF210024B3
:100AB000EAE70123591A1B2966DD019A1340002138
:100AC0000024E1E78023DB031C4238D01D4251D0D3
:100AD0001C436402640A3300FF21D5E763016C0103
:100AE000A3423BD21B260021013801251F004900EB
:100AF0005B00002F01DB9C4201D81B1B2943013EF8
:100B0000002EF3D11C00631E9C410C4301007F3179
:100B10000029CEDD630704D00F232340042B00D02F
:100B20000434230103D501002C4B80311C40FE29E5
:100B30000DDD0123019AFF2113400024A4E7802347
:100B4000DB031C436402640A3300FF219CE701239A
:100B5000019AA401640AC9B2134095E71B1B1A2627
:100B60000121C2E7009B8B469A4600244CE76302B2
:100B7000E5D500258024E4032C436402640A009B2D
:100B8000FF2181E70195C1E723002020CB40411AD6
:100B90008C40611E8C411C43630704D00F2323400B
:100BA000042B00D00434630105D50123019A0121EF
:100BB0001340002468E70123019AA401640A13404A
:100BC000002161E78023DB031C436402640A53466F
:100BD000FF2159E7A4820510E4820510FFFFFFF70B
:100BE00070B5420045024E024C00C30F6D0A120E52
:100BF000760A240EC90F0120FF2A06D0FF2C03D04D
:100C0000A24201D1B54206D070BD002DFCD1FF2C0F
:100C1000FAD1002EF8D18B4206D00120002AF3D160
:100C20002800451EA841EFE70020EDE7F0B542009F
:100C300045024C02C30F48006D0A120E640A000EF2
:100C4000C90FFF2A1ED0FF2821D0002A0AD16E42E8
:100C50006E41F6B200280FD1002C0DD10020002DDE
:100C600009D005E0002801D1002C01D08B4211D021
:100C7000012158420843F0BD002EF7D00120013970
:100C80000843F8E7002DDED002204042F3E7002CB5
:100C9000DBD0F9E78242EBDC04DBA542E8D8002098
:100CA000A542E8D20121581E0843E4E7F0B542000E
:100CB0004D024C004602760A120EC30F6D0A240E36
:100CC000C90FFF2A16D0FF2C18D0002A0AD1704273
:100CD0007041C0B2002C15D0002805D00120013988
:100CE0000843F0BD002C13D0994214D001205B4280
:100CF0001843F6E70220002EF3D1E4E70220002D8E
:100D0000EFD1E2E7002DE7D10020002EE9D0EDE79A
:100D1000002DE9D1EAE7A24206DCDFDBAE4203D8D0
:100D20000020AE42DAD3DCE7012049420843D8E78D
:100D3000F8B557464E464546DE46E0B54702460002
:100D400088467F0A360EC40F002E47D0FF2E24D0CF
:100D5000FB008027FF041F43002399469A467F3EED
:100D600043465D025800DB0F6D0A000E984643D0E3
:100D7000FF283BD0EB0080250022ED041D437F3887
:100D80003618731C41469B464B46614013430F2B5C
:100D900064D875489B00C3589F46002F42D1082352
:100DA0009946063BFF269A46DAE74146022A28D0B2
:100DB000032A00D1CEE0012A00D0ACE0114000208F
:100DC0000022CCB24002D205400AE407104320437F
:100DD0003CBC90469946A246AB46F8BD002F15D1C3
:100DE00004239946033B00269A46B9E7FF200222D6
:100DF000002DC5D00322C3E7002D19D10020012208
:100E0000BEE70124FF220C400020DBE7380002F09F
:100E10004DF97626431F9F4000237642361A9946A5
:100E20009A469DE70C239946093BFF269A4697E789
:100E3000280002F03BF9431F9D4076235B42181ABD
:100E400000229DE780200024C003FF22BAE73D0076
:100E50005246ABE73D0021005246A7E73B0C9C46BB
:100E60002A04120C2B0C1400604665463F043F0C0C
:100E70007C4342435D437B43270C9B18FF18BA42D7
:100E800003D980235B029C46654424043A04240C65
:100E9000121993015C1EA3413F0C920E7D191A4357
:100EA000AD0115432B0104D501235E466A081D40A0
:100EB000154332007F32002A25DD6B0704D00F2353
:100EC0002B40042B00D004352B0103D53200274BD7
:100ED00080321D40FE2A94DC0124A801400AD2B2CF
:100EE0000C406FE78020C003074207D0054205D1C0
:100EF00028434002400A4446FF2263E73843400249
:100F0000400AFF225EE70124A31A1B2B05DD0C40DB
:100F10000022002056E75E46CBE72A002020DA4078
:100F2000C31A9D402B005D1EAB4113435A0704D0EA
:100F30000F221A40042A00D004335A0104D5012498
:100F400001220C4000203DE701249B01580A0C407F
:100F5000002237E780200124C00328434002400AD2
:100F60000C40FF222EE7C04624830510FFFFFFF749
:100F7000F0B54F46D64646464400C0B5C20F4702BC
:100F80004802400A844666467B0A4800C90F9A46D2
:100F9000240E1500DB00000E8946F600FF2800D164
:100FA0008FE001214F464F403900914266D0221A0E
:100FB000002A00DC9DE000283DD1002E00D18BE00E
:100FC000511E002900D0B5E001249B1B5A0144D5D5
:100FD0009B019F09380002F069F805388740844278
:100FE00000DD96E0041B3A0020200134E240041B9F
:100FF000A7403B005F1EBB41002413435A0704D0A7
:101000000F221A40042A00D004335A0127D5013494
:10101000FF2C00D179E001229B015B0AE4B22A4057
:101020005B02E405580AD207204310431CBC9046DB
:101030009946A246F0BDFF2CE0D08021C9040E43A2
:101040001B2A7BDC31002020D140821A9640721E80
:1010500096410E439B1B5A01BAD45A07D0D10122A4
:10106000DF082A40FF2C33D1002F00D1A8E08023D5
:10107000DB033B435B025B0AFF24D1E7211A002913
:101080004CDD00282AD0FF2CB8D08020C0040643B5
:101090001B2900DDAFE030002027C840791A8E40C0
:1010A000711E8E4106439B195901D6D50134FF2C80
:1010B00000D185E001227A491A405B080B401343B6
:1010C0009CE7002E00D070E76BE73B1EC5D10022E5
:1010D0007B025B0AE4B2A3E714008FE7002E4DD039
:1010E000481E002857D19B1901245A01B5D5022466
:1010F000E0E7002A25D1621CD2B2012A72DD9F1BD3
:101100007A0135D5F71A0D0064E7012200232A4041
:1011100086E73B00634A241A13406FE700296CD12D
:10112000611CC8B201284EDDFF2949D09B195B081C
:101130000C0063E7FF2A41D00A0081E701269B1BD0
:1011400089E7002C1CD0FF2821D08024E4045242DF
:1011500023431B2A00DD96E01C002025D440AA1A58
:1011600093405A1E93412343F31A04000D002DE7C8
:10117000002F00D02EE700220024A9E70C003DE755
:10118000002B58D0D243002AEED0FF28E1D1330003
:10119000FF240D0032E7FF2910D0010078E7002B73
:1011A0006ED0FF24002E00D128E780225146D203C2
:1011B000114203D06146114200D13300FF241DE7E4
:1011C000FF2400232CE7002CE9D1002B63D0002E54
:1011D00000D113E79B195A0100D43EE7314A0C00B5
:1011E00013400BE7002C1ED1002B2FD1002E4FD027
:1011F00033000D0002E7012655E7002C1FD1002B1C
:1012000043D0C94300290BD0FF2839D01B2944DC27
:101210001C002027CC40791A8B40591E8B41234358
:101220009B19040040E7002B1AD1002E24D18027FF
:101230000022FF031BE7330004000D00DEE6FF2859
:101240001ED08024E40449422343DFE7002E00D16E
:10125000D4E69F1B7A0100D437E7F31A0D00CDE6E0
:10126000FF24002E00D1C9E680225046D20310424E
:10127000A4D060461042A1D133000D00FF24BDE68A
:101280003300FF24BAE601236EE733000400B5E61D
:10129000002700221CE73300B0E60123C0E7C04668
:1012A000FFFFFF7DFFFFFFFB41024300C20F490A22
:1012B0001B0E00207E2B0DDD9D2B0CDC80200004FE
:1012C0000143952B0ADC9620C31AD9404842002AD4
:1012D00000D108007047034BD018FBE7963B9940BC
:1012E000F4E7C046FFFFFF7F70B5002830D0C3177A
:1012F000C4185C40C50F200001F0D8FE9E231B1AC5
:10130000962B0DDC9622D21A94402A006402640ABD
:10131000DBB26402DB05600AD2071843104370BDDC
:10132000992B19DC9922D21A002A29DD9440220037
:10133000144C1440510704D00F210A40042A00D055
:101340000434620113D4A401640ADBB22A00E0E78A
:10135000002200230024DCE705222100121AD140DC
:10136000B922D21A9440621E94410C43DAE7054B2D
:101370002A001C409F23A4011B1A640ADBB2C8E7A1
:101380002200D5E7FFFFFFFB10B5041E27D001F0B8
:101390008DFE9E231B1A962B0ADC9622D21A9440AD
:1013A0006402640ADBB26402DB05600A184310BD04
:1013B000992B17DC9922D21A002A27DD94402200AB
:1013C000134C1440510704D00F210A40042A00D0C6
:1013D0000434620112D4A401640ADBB2E3E70023FF
:1013E0000024E0E7B9222100D21A91400A00511EE0
:1013F0008A410521091ACC401443DBE7044B1C4009
:101400009F23A4011B1A640ADBB2CCE72200D7E7B2
:10141000FFFFFFFBF8B54546DE4657464E460C0338
:10142000E0B54E00C90F88460D00610A440F0C4319
:10143000C70019035800DB0F9B464B0A510F0B43A3
:10144000760D400D1900D200D84500D1AEE0351A16
:10145000002D00DCF6E000280FD1134300D1DBE0C3
:101460006B1E002B00D037E1BA1A9742BF41641AB5
:101470007F42E41B0126170024E0C64B9E424DD05C
:1014800080231B041943382D00DD07E11F2D00DDEB
:1014900038E12020431B9A460B0050468340994672
:1014A00013004846EB401843030050468240501E4C
:1014B0008241E9401A43BA1A611A9742A4411700BF
:1014C00064420C1B230262D56402650A002D00D120
:1014D000DFE0280001F0EAFD0300083B1F2B00DDE0
:1014E000D2E020223C00D21A9D40D4409F402543A8
:1014F0009E4200DDC4E09E1B731C1F2B00DDF1E04B
:10150000202238002900D21AD840914097402C0060
:101510000143781E8741DC4000260F437B0709D03A
:101520000F233B40042B05D03B1DBB42BF417F42F4
:10153000E4191F0023022CD5964B01369E4200D1A0
:101540009AE04546944BFF081C406007760564020C
:101550000743240B760D00212403230B0C0D8F4A27
:1015600024051C431440330523435B00ED075B084F
:101570002B43380019003CBC90469946A246AB4626
:10158000F8BD6446044300D111E2040067467B07BE
:10159000C6D145466007FF080743E4087D4B9E42DD
:1015A00030D024037605240B760DD4E7331A9A46FF
:1015B000002B78DD002831D076488642AED08020DE
:1015C000000401435346382B00DCE9E00A43511E76
:1015D0008A410021D219BA42BF4109197C42170041
:1015E0000C192302D3D56B4B01369E4200D13AE150
:1015F0000120694B1C407B0807401F43E00707435D
:1016000064088BE723003B4300D1CBE18022120327
:1016100014432403240B9EE72E007FE708001043A9
:1016200000D1B4E0581E002800D0DEE0BA18BA425B
:101630009B4164185B42E418170001262302A6D5DB
:101640000226D5E7002D6ED1701C4005400D012803
:1016500000DCF9E0B81A844687428041E51A40422E
:101660002D1A280200D489E0D71BBA4292411C1BD4
:101670005242A51AD84629E74546002400276AE7C2
:10168000454CF61A2C4049E73D0028388540002794
:101690002EE7380001F00AFD20301DE70A43511EF5
:1016A0008A41002107E7002B00D0F3E0701C4305BE
:1016B0005B0D012B00DCADE0364B984200D1D1E050
:1016C000BA18BA42BF4164187F42E419E7075208CA
:1016D00017436408060021E72E48854200D193E0B5
:1016E0001D00D0E629001F3EF140202B00D18DE0E7
:1016F0004022D31A9D402F437D1EAF4100240F434B
:10170000002644E72B000800203BD8400300202D92
:1017100000D17DE04020451BA9400A43511E8A416B
:1017200000211A43C7E6002E50D01A4EB04257D0BF
:1017300080266B429946360434434B46382B00DDF5
:10174000D6E01F2B00DD35E12026F51A2600AE403D
:10175000B2463E00DE40AC46350056462E43654656
:10176000AF407D1EAF41DC403743D71BBA429241A8
:101770000C1B5242A41A0600D846A3E664466746EC
:101780002C4300D0A2E600250026002706E71E0015
:10179000C4E6C046FF070000FFFF7FFFFFFF0F808A
:1017A0001F2B63DC2020C31A080098409C46834608
:1017B00053461000D84003005846184363469A40E9
:1017C000531E9A4153460243D94003E726003E4345
:1017D00006D0EB439946002BC7D0944EB042ACD113
:1017E0000C0017000600D84698E6904B9A450BD09F
:1017F0008246E7E6002800D09EE01800104300D1A2
:10180000E9E01C001700D846884E87E6002572E7FD
:10181000002182E723003B43002E00D0ABE0002BE9
:1018200000D1E7E00B00134300D177E6BA18BA42C3
:10183000BF4164187F42E419230200D4F2E07C4BDC
:1018400017001C40060069E620003843002ED1D165
:1018500000285BD11C00144300D1A8E01C00170035
:10186000D8465BE606000024002797E650460B00AA
:101870002038C34099465346202B00D195E04023A1
:1018800050461B1A99400A43511E8A414B4600217B
:101890001A439FE6002E30D126003E4367D0DB433B
:1018A0009A46002B1CD0614EB04260D05346382B74
:1018B00000DD96E01F2B00DD9FE02026F31A2600B6
:1018C0009E409C46B34653463E00DE4033005E4693
:1018D0001E4363469F407B1E9F415346DC40374377
:1018E000BF189742924164185242A418060078E645
:1018F00027437C1EA741002437E74C4EB04236D028
:1019000080265B4236049A463443CFE718001043E2
:1019100000D103E6B81A84466745AD41E01A6D422E
:10192000401B050200D42CE6D71BBA4292411C1B77
:101930005242A41AD846F1E51800104300D163E7DB
:10194000F808670707438020E4080003044208D032
:10195000DD08054205D1D208590711430F002C00BC
:10196000D8467B0FE4001C43FF00304ED6E50C0048
:1019700017000600D2E5002B38D00B00134300D12E
:1019800042E7F808670707438020E40800030442A1
:10199000E7D0CB080342E4D1D208490711430F0036
:1019A0001C00DEE700270024D5E500216BE70025B9
:1019B0000027F3E54E462500203EF5404B462E001D
:1019C000202B2DD04025ED1AAC4027437C1EA7418B
:1019D00000243743C9E6802400252403134E002742
:1019E000DCE527437C1EA741002479E70C001700A3
:1019F0000E4E93E50C00170090E556462300203E5E
:101A0000F34099465346202B0ED0402356469B1B4D
:101A10009C4027437C1EA7414B4600241F435FE7A1
:101A20000024D2E71700B2E50024F2E7FF07000028
:101A3000FFFF7FFFF0B557464546DE464E46E0B510
:101A40004C000E0387B0834692461D008046360B3D
:101A5000640DCF0F002C4FD06F4B9C4235D08023AC
:101A6000420F1B04F600134333439946C3009846C4
:101A70006A4B00269C460023644403932B031B0BF4
:101A80009B466B00ED0F50465B0D01955ED0624AA0
:101A9000934253D05A46D1008022400F1204024391
:101AA0000A4393465246D1005C4A9446002263445E
:101AB0003800684084460290E41A16430F2E00D97D
:101AC000B4E0574BB6009B599F46030033439946F9
:101AD0006CD100239846023308260393CEE7CB4609
:101AE0004146039A0197022A65D1019B4A4C9C46C4
:101AF0000023002298466BE00300334399464ED002
:101B0000002E00D1BCE1300001F0D0FA03000B3B05
:101B10001C2B00DDACE11D22D31A5A460100DA402D
:101B200008398E401300334399465B468B409846F4
:101B300000233C4C0026241A03939FE751465A4643
:101B4000114329D1002293460232B1E7594601439D
:101B50001ED05B46002B00D19EE1584601F0A6FA4C
:101B600003000B3B1C2B00DD8FE102005946083AB5
:101B700091408B461D21CB1A5146D9400B00594646
:101B80000B4351469B469140264B00221B1A8FE780
:101B9000002301229B468BE75146032288E700235E
:101BA0009846013304260024039367E70323B146D4
:101BB00003930C2662E7032A00D15CE2019B012A11
:101BC00000D0E4E113409C46002300240022984604
:101BD00000211203130B0A0D12051A432305124CA0
:101BE00040462240134362465B00D2075B08134322
:101BF000190007B03CBC90469946A246AB46F0BDE2
:101C0000002380229C4612039846034CE0E7002301
:101C1000014C00229846DBE7FF07000001FCFFFFB4
:101C2000648305100DFCFFFFFFFF0F80D94500D92D
:101C300039E100D134E1002346464D469A46013C45
:101C40005B460A0E1B021A430B02170C0393130484
:101C50001B0C3900280090460193FEF789FA020018
:101C6000019B83465A43280039009146FEF706FB44
:101C7000350C09040D43A9450DD95B464544013B8C
:101C8000A84500D93AE1A94500D837E102235B42D3
:101C90009C464544E3444B46EB1A39001800049334
:101CA000FEF766FA019B0500434339000498994604
:101CB000FEF7E4FA330409041B0C0B43994509D9D8
:101CC00043446A1E984500D91AE1994500D817E1A6
:101CD000023D43444A469B1A5A4612042A4303993A
:101CE0009346100C0A0C914609045A46090C4E46BC
:101CF0000D001204120C4543059151437243704389
:101D000052190E0CB218954203D980256D02AC46CB
:101D10006044150C09041204090C28185218834257
:101D200000D2CEE000D1C8E01D1A53469E1AB2453B
:101D300092415242AB1A9A46984500D117E13900B8
:101D40001800FEF715FA019B050043433900504681
:101D50000493FEF793FA04980B04310C194388425C
:101D600009D941446B1E884500D907E1884200D853
:101D700004E1023D4144049BCB1A1800390004934E
:101D8000FEF7F6F9019B824643433900049801931C
:101D9000FEF774FA01980B043104090C19438842C8
:101DA0000DD953464144013B884500D9E8E08842BB
:101DB00000D8E5E002235B429C464144E244019B9B
:101DC0002D04CE1A51462943059D4F462A000B0487
:101DD000080C1B0C5A4345437B4378435B19170C93
:101DE000FB189D4203D980256D02AC4660441D0C52
:101DF00012041B04120C28189B18864200D293E090
:101E000000D18EE001231943A04BE318002B00DC26
:101E100099E04A0700D09EE05A46D20106D55A46BC
:101E20009B4B1A4080239346DB00E318994A934268
:101E300068DD0123029A984C1A4000239446984684
:101E40000022C5E680224B46120313420AD05B46AD
:101E5000134206D11A431203120BAC4688468E4C2D
:101E6000B6E64B461A431203120BBC468A4CAFE649
:101E700003005A46283B9A4000239146984657E66D
:101E8000584601F013F9203040E603005246283B43
:101E90009A400021934677E601F008F920305FE68A
:101EA000884500D2C7E64B46DE075D0843465B081F
:101EB0001E434346DB079A46C2E60025924500D3FF
:101EC00033E7039E5946B446E244B245AD416D4204
:101ED0004544EB180139984507D2984200D97FE074
:101EE00000D1BCE01D1A8B461FE79845FAD1039D2F
:101EF0005545F2D943468B461D1A16E79B46CAE65E
:101F00001500E7E65A46C90852070A435B059046A2
:101F10005C0D5A460123029952021940120B8C465D
:101F200056E6002B00D16FE746444A1EB04529D93A
:101F30001100864200D065E7039A934200D061E722
:101F400062E7012149420120C21A382A21DD029BA1
:101F500003409C4638E60F220A40042A00D15BE782
:101F60000A00111D914292415242934454E7474B5B
:101F7000E318002BE5DD01225242F2E71D00FAE6EC
:101F80009A461CE7B04239D86ED011003AE7029366
:101F90003AE71F2A3CDC20239B1A0C005846994044
:101FA00098404B1E99415B46D440D34020430843A0
:101FB0001A00430709D00F230340042B05D001006A
:101FC000081D88429B415B42D21813023AD5012377
:101FD000029A01241A400023944698460022F7E50D
:101FE000022149428C46039DE344AC46E244AA45A3
:101FF000AD416D424544ED182D1A96E68A1E0399AF
:102000004D008D42894149424144761803958FE73E
:102010001F204042C31A5846D8400300202A28D027
:1020200040205D46821A954029434A1E914119433A
:10203000072300220B4009D00F2300220B40080089
:10204000042BBDD1010053075202120BC9081943DA
:10205000012388460299002419408C46B8E5524570
:10206000BED88B46002560E6039D9D42C6D3110075
:1020700062E70025D8E780225B4612031A43019BE2
:102080001203120B9C468846034CA1E5FF03000097
:10209000FFFFFFFEFE070000FF070000F0B54F4600
:1020A0004646D6465C00C0B51F03DB0F9A46174B69
:1020B0000E034D0084468046360B6D0DC90F9146C8
:1020C0003F0B640D01209D4208D09C4201D0A542E7
:1020D0000BD01CBC90469946A246F0BD63463343E4
:1020E000F7D1AC42F5D13A43F3D10120BE42F0D151
:1020F000C845EED1514507D0002DEAD163461E43B5
:102100003000461EB041E4E70020E2E7FF07000090
:10211000F0B54546DE4657464E46E0B51F033D0B3B
:102120002C4F0E034C00AB465D008446360B640D0D
:10213000C90F90466D0DDB0FBC422AD0254FBD4222
:102140002DD0002C0FD130430700814678427841D2
:10215000C0B2002D17D15F463A4314D14B46002040
:10216000002B0AD006E0002D02D15846024301D0D0
:10217000994218D04842012108433CBC90469946F8
:10218000A246AB46F0BD0028F2D00120013B184327
:10219000F3E737000743D1D002204042EDE75F4626
:1021A0001743CED0F8E7AC42E4DC03DA481E012145
:1021B0000843E2E75E45DDD806D000205E45DCD26C
:1021C0000123481E1843D8E7C445D3D80020C4458E
:1021D000F6D3D2E7FF070000F0B54E464546DE468F
:1021E00057465C00E0B51F03DB0F99462A4B0E03F0
:1021F0004D00C90F8446360B6D0D8B4690463F0B44
:10220000640D9D4220D0244B9C4222D0002D12D13F
:10221000304343424341DBB2002C1FD0002B0CD093
:102220004B460120013B034318003CBC90469946B5
:10223000A246AB46F0BD002C16D0CB4517D05B466E
:10224000594201230B43EFE7310002230143EBD155
:10225000D9E7390002231143E6D1D7E73A43DDD16C
:1022600000230028E0D0EAE73A43E6D1E7E7A542B9
:10227000E5DC05DBBE42E2D807D00023BE42D3D264
:102280005946012301390B43CEE7C445D7D8002373
:10229000C445F5D3C8E7C046FF070000F0B5574670
:1022A0004546DE464E46E0B50C0398464E00230BED
:1022B00087B0070092469B46760DCD0F002E6BD05F
:1022C0006D4B9E4235D080245B46420F2404DB00D8
:1022D00014431C43C3009946684BA3469C46002305
:1022E00000276644029343461C035A00DB0F504606
:1022F000240B520D984600D176E05F4B9A426DD088
:102300008023410F1B040B435C49E4008C461C43B3
:10231000C300002062444146B6186940721C019116
:10232000944607430F2F00D9B0E0554ABF00D25959
:1023300097465B460343994600D087E000239B46BF
:10234000023308270293CEE742460192022867D063
:10235000032800D10EE2012800D062E1002300240E
:102360000022994601990140CDB2002112030B0DC4
:10237000120B1B051343434A240513401C436400FE
:10238000ED0764082C434846210007B03CBC90464A
:102390009946A246AB46F0BD034399464FD05B46F3
:1023A000002B00D189E1584600F080FE03000B3B72
:1023B0001C2B00DD7AE11D22D31A3A0001005C4695
:1023C000DA4008398C4013008F4023439B46B946BE
:1023D00000232D4E0027361A029384E753462343E9
:1023E0002AD10024022096E75346234320D0002C14
:1023F00000D157E1200000F059FE03000B3B1C2BDD
:1024000000DD49E11D21CB1A51460200D940534657
:10241000083A944093400C431B4A121A00207AE772
:102420000125019B144C1D400023002299469CE786
:102430000024002201206EE7534603206BE70023AF
:102440009B4601330427002602934CE70323814671
:102450000C27029347E780220023002512039946A8
:10246000054C82E75C464B4602986FE75C464B465C
:10247000019502986AE7C046FF07000001FCFFFFD4
:10248000A4830510FFFF0F800DFCFFFF4A4649465D
:10249000170C1A0C1B041B0C08041900000C4143F8
:1024A0001500884619007D43794303958946290024
:1024B000150045434D44029545462D0CAA46029D04
:1024C0005544A94506D98A46802149028946CA440D
:1024D00051460391290C0491414609042D04090C2D
:1024E00088462900250C24044144240C0591210030
:1024F00041438846210079438A4668434146504417
:102500008146080C48446F43824503D98021490223
:1025100089464F44010C894639004944029141469D
:102520000F0404993F0C88460004C01980444146BA
:10253000049159460F0C0904090C884659438A46F0
:1025400039005143894641464A435146090C8B465E
:102550007B43D2185A44934203D980235B029B46A3
:10256000D94451460904090C8A46414661437C43DB
:10257000130C12044B445244A1468A463C00414687
:102580006C434D4351464D440F0C7D19A94503D969
:102590008021490288464444049F0399B846414437
:1025A0008B468345804141428846514608042F04AA
:1025B000000C3F18584602991018894690429241E3
:1025C0004F44BA46524299469346C244D144CB4402
:1025D0008F42BF41C245894199459B4193459241F4
:1025E0007F4249422D0C52420F435B4213437F19F5
:1025F000FF185B463C19DB0D059A64021C4343023D
:1026000013435D1EAB415A46C00D034352021343B0
:10261000E20156D501205A0803401343E207134351
:1026200064085A48604400284DDD5A0709D00F223B
:102630001A40042A05D01A1D9A429B415B42E418B5
:102640001300E20104D58020514AC00014406044C8
:10265000504A904200DDE3E60125DB0862071A4399
:102660006402019B9146220B4405640D1D407CE6EB
:10267000802259461203114208D0144206D1224347
:102680001203120B45469946434C6EE65B461A43CD
:102690001203120B404C68E603005446283B9C4052
:1026A0000023B9E600F002FD2030A6E60300283B37
:1026B0009F400023BB4699468AE600F0F7FC203095
:1026C00074E6B446ADE701252A1A382A06DD019BD7
:1026D00000241D4000230022994646E61F2A21DCE3
:1026E00020252000AD1A1E00AB40A840D6405D1E3C
:1026F000AB4130431843D440430709D00F23034074
:10270000042B05D00300181D98429B415B42E4183E
:10271000230221D50125019B01241D400023002215
:10272000994622E61F2521006D42281AC140080063
:10273000202A1DD05F35AA1A944023435C1EA34172
:10274000072503431D400022002D09D00F2200243D
:102750001A401800042AD6D1030065076402220B30
:10276000DB082B4301259946019B00241D40FCE515
:102770000024E2E78022012512032243019912037B
:10278000120B0D409946044CEFE5C046FF030000D4
:10279000FFFFFFFEFE070000FF070000F0B5464602
:1027A000D6464F460C03C0B5CD0F4E00610A440F0C
:1027B0000C43C1005800400D84468A460F0019039F
:1027C000500F490A0143C648760DA846DB0FD200D8
:1027D000844500D1D8E001204340AB4200D1A6E0BF
:1027E0006046351A002D00DC05E1002810D10B00F1
:1027F000134300D1D7E06B1E002B00D04BE15346B2
:102800009F1ABA458041641A4042241A01261EE0EC
:10281000B34B9E4248D080231B041943382D00DD62
:1028200019E11F2D00DD4CE120230F005B1B100080
:102830009A409F40E840531E9A41E940074317439E
:102840005346DF1B611ABA45A44164420C1B2302A4
:1028500000D4C5E06402650A002D00D1F6E028002E
:1028600000F024FC0300083B1F2B00DDE9E02022E0
:102870003C00D21A9D40D4409F4025439E4200DD3B
:10288000DBE09E1B731C1F2B00DD0AE120223800B9
:10289000D21A290097402C009140D8407A1E9741C7
:1028A000DC40002601430F437B0709D00F233B4048
:1028B000042B05D03B1DBB42BF417F42E4191F00E2
:1028C000230225D5864B01369E4200D1AFE0854BD1
:1028D00001251C4043466207FF0864027605174342
:1028E000240B760D1D4000212403230B0C0D7E4A82
:1028F00024051C431440330523435B00ED075B08AC
:102900002B43380019001CBC90469946A246F0BDE6
:10291000012543466207FF081743E4081D40704B3A
:102920009E4236D024037605240B760DDBE7634602
:10293000F31A002B00DC94E06046002835D068488C
:102940008642B1D080273F043943382B00DCFDE0BC
:102950000A43170000217A1E97415744574580418A
:10296000091944420C1923023AD55D4B01369E42A7
:1029700000D14BE101225B4B1C407B0817401F43F9
:10298000E207174364088FE70800104300D024E7EC
:1029900021E723003B4300D1B9E180221203144315
:1029A0002403240B9FE72E007EE70800104300D18C
:1029B000CAE0581E8446002800D0E7E05244524541
:1029C000804164184042241817000126230207D5CD
:1029D0000226CFE764462C4300D1B3E12C006746C2
:1029E0007B0700D062E76307FF081F4301254346CA
:1029F000E4081D4093E7002D78D1751C6D056D0D21
:102A0000012D00DCF2E05046801A8245BF41651A74
:102A10007F42ED1B8446280200D48CE05046171AF2
:102A2000BA4292410C1B5542651B984614E701259A
:102A3000434600241D40002755E72A4CF61A2C4037
:102A400032E73D0028388540002717E7380000F0BE
:102A50002DFB203006E70A43170000217A1E97411C
:102A6000EEE6002B00D0E5E0731C9C465B055B0D99
:102A7000012B00DC9FE01A4B9C4500D1C5E052447D
:102A800052458041641840422418E7075208174312
:102A90006408664608E71248854200D185E01D00BB
:102AA000BCE629001F3EF140202B00D17FE04022F0
:102AB000D31A9D402F437D1EAF4100240F430026B3
:102AC0008EE72B000F00203BDF40202D71D04023EC
:102AD0005D1BA9400A43511E8A4100211743AFE6FE
:102AE000FF070000FFFF7FFFFFFF0F80002E3ED09B
:102AF000B34EB44545D0802636046D423443382D5C
:102B000000DDA8E01F2D00DD1FE120262700504634
:102B1000761BB740E84007435046B040461EB041E0
:102B2000EC403843171ABA4292410C1B5242A41A85
:102B3000664698468BE6644667462C4300D08BE693
:102B4000002500260027EAE61E00ADE61F2B60DC0C
:102B50002027F81A0F00844687401000D84007430A
:102B600060468240501E8241D9401743F5E6260058
:102B70005046064305D0ED43002DD3D0904EB445CA
:102B8000BDD10C001700664698468DE68C488342FE
:102B90000BD06346D9E6002D00D096E00800104324
:102BA00000D1E2E00C0017009846854E7CE6002537
:102BB00080E700218EE7230050460343002E00D01B
:102BC000A8E0002B00D1DEE00B00134300D16BE640
:102BD0005244524580416418404224181700230291
:102BE00000D4FDE6774B66461C405DE62500504666
:102BF0000543002ECFD1002D4FD10C00144300D13E
:102C0000A0E00C00170098464EE666460024002718
:102C100085E61F000800203FF8400700202B00D168
:102C20008EE04020C31A99400A43511E8A41002178
:102C3000174392E6002E14D126005046064362D078
:102C4000DB43002B5CD187189742924164185242B3
:102C5000A418664687E650462043441EA04100243F
:102C600060E7574EB4454ED0802636045B4234436D
:102C7000382B00DD7FE01F2B00DD8BE020262700B6
:102C80005046F61AB740D84007435046B040461E5B
:102C9000B0410743DC40BF18D6E70D00154300D113
:102CA00002E65046801A8245BF41651A7F42ED1BFD
:102CB0008446280200D48DE65046171ABA42924143
:102CC0000C1B5242A41A9846EEE50D00154300D1A4
:102CD0006BE750466707C00807438020E4080003FD
:102CE000044207D0CD08054204D12C009846D708ED
:102CF00049070F437B0FE4001C43FF00304ED3E530
:102D00002F4EB445B4D10C0017006646CCE5002721
:102D10000024E8E5002B39D00B00134300D144E731
:102D2000C008670707438020E40800030442E1D09D
:102D3000CB080342DED1D70849070F431C00D9E76F
:102D4000002171E700250027E9E52E002700203E3D
:102D5000F740202D2FD04026751BAC405046204315
:102D6000441EA04100243843DCE6802400252403CF
:102D7000134E0027D3E5504620430700781E8741B5
:102D80000024BF1860E70C0017008DE50C00170049
:102D90000B4E89E51E002700203EF740202B0CD06B
:102DA0004026F31A9C4050462043441EA04107434E
:102DB0000024BF1848E70024D0E70024F3E7C0460A
:102DC000FF070000FFFF7FFF70B50E4E0D031C03D1
:102DD00049005B002D0B490D240B5B0DB14204D063
:102DE000084900208B4208D070BD05430120002D0A
:102DF000FAD1044900208B42F6D114432000441E2E
:102E0000A041F1E7FF07000030B5134D0A034B0066
:102E1000120B5B0DC90F0024AB4210DD0F4CA34217
:102E20000FDC80240E4D64032243ED1A1F2D0BDDB1
:102E30000C48C31ADA405442002900D11400200083
:102E400030BD094BCC18FAE7084CE840A44663446F
:102E50009A400243EFE7C046FE0300001D04000055
:102E60003304000013040000FFFFFF7FEDFBFFFFB2
:102E700070B5002830D0C317C4185C40C50F2000BF
:102E800000F014F9174B184A1B1AD21A1F2A18DD22
:102E9000164AD21A9440002224035B05240B5B0DD2
:102EA0000021100024030A0D240B12052243104CAC
:102EB0001B05224013435B00ED075B082B43190001
:102EC00070BD210091400A000B21081AC4405B0527
:102ED0002403240B5B0DE3E70025002300240022DC
:102EE000DEE7C0461E0400003304000013040000A7
:102EF000FFFF0F804100090E4B1C70B5DBB246028C
:102F0000750AC40F012B14DDE0239B006D07360BFF
:102F1000CB1800210A0D280012051C4D32435B0519
:102F20002A405B0813435B00E4075B082343190056
:102F300070BD002914D1002D1ED0280000F0B6F875
:102F40000A281CDC0B232A001B1ADA400300153365
:102F50009D400F4B12031B1A5B05160B5B0DD8E748
:102F6000002D06D0320B802636036D071643094B21
:102F7000CFE7084B0026CCE700230026C9E7030073
:102F80002A000B3B9A400025E3E7C046FFFF0F8075
:102F900089030000FF070000F0B54C00640D0B032F
:102FA000621C450F5B0A52052B43C90FC500520D29
:102FB000012A28DD3A4AA618FE2E1BDC002E3EDD33
:102FC00080010200501E82416D0F2A43DB00134333
:102FD0005A0704D00F221A40042A00D0043380225A
:102FE000D2041A405AD00136FF2E03D09B015B0A4F
:102FF000F4B201E0FF2400235802E405400AC907A7
:1030000020430843F0BD002C07D01D43F2D08020A0
:10301000DB0080040343FF26DAE72B4303D00523BC
:10302000DB08FF2C03D05B025B0AE4B2E4E7002B71
:1030300032D08020C00303435B025B0ADCE732002E
:10304000173214DB80221E2712041343BF1B1F2FCD
:103050000FDC144A944664442A00A5402E00A34085
:10306000751EAE41FA40334313430026B0E70024F7
:10307000D5E702225242961B1A00F240202F09D0B7
:10308000094884466444A3402B435D1EAB4100269F
:1030900013439DE70023F7E70023ADE73400BFE7C4
:1030A00080FCFFFF82FCFFFFA2FCFFFF1C2101232D
:1030B0001B04984201D3000C10391B0A984201D31B
:1030C000000A08391B09984201D30009043902A2F9
:1030D000105C40187047C046040302020101010160
:1030E0000000000000000000024A13680133136072
:1030F0007047C04600030020C021074A074B08481C
:103100005360036A09061B021B0A0B430362002378
:10311000936007331360704710E000E0FE7C00000E
:1031200000ED00E0034A116813685B1A8342FBD389
:103130007047C04600030020124AD3691B061B0FCC
:103140004370D9B2D369104A1B071B0F83700F4B12
:103150001B684360934212D10D4B1A680D4B9A4283
:103160000BD104230370002901D1012343700A4BC2
:103170009B8A01339B00836070470223F2E701239F
:10318000F0E7C0460000904041A0000228009040B7
:103190002800001044A000F200001040F0B5070025
:1031A00085B001AC0E0020001500FFF7C5FF2378A5
:1031B0003B7063783370A3782B7005B0F0BD10B509
:1031C00004F0FFFF10BD10B505F016F810BD10B5E6
:1031D00004F0E8FF10BD032070470000F0B5204C5C
:1031E0001600A5440E910400EFF31083079372B606
:1031F00000221C4B1A7014F051FD07002000FFF74D
:10320000EAFF0500200002F08BFE3B1CAF4200D914
:103210002B1CDAB2A24200D9231CD9B2C2B291420D
:1032200000D9031CDBB2104A990001938B5801337B
:103230008B50019B002B07D1079B83F31088002044
:10324000A9239B009D44F0BD019B012B10D10021BF
:10325000064B1A7A1972D2B230BF1A72ECE7C04626
:103260005CFDFFFF0C000020040300200000704004
:1032700038226B46E14C9B1826701B787DA8237181
:10328000FFF75AFF237ADE49DBB20B938B88DD4AC6
:103290009BB2109313685C911193002309940692DA
:1032A00080A91A000698C032920080589A00013313
:1032B0005050082BF5D1D44CD4482368D4491293EC
:1032C000036AD44F13938023DB051A68D24E1492FD
:1032D0005A68D24D15929A681692DA6817921A694E
:1032E00018925A6919929A691A92DA690C92DA6AF2
:1032F0001B921A6B1C925A6B1D921A8F92B21E92DD
:103300005B6CC74A1F93CB6820930B7FDBB2219382
:103310008B8C9BB22293C34B1B78DBB22393C24BA3
:103320001B78DBB224930B6B2593C04B1B78DBB26D
:1033300026930B8F9BB22793BD4B1B78DBB2289350
:10334000BC4B9C461B78DBB229933B78DBB22A93BB
:103350003378DBB22B932B78DBB22C93B64B1B78F4
:10336000DBB22D9313682E9353682F93137CDBB23B
:103370003093137DDBB23193B04BDB7FDBB2329302
:10338000138D9BB23393D36A3493138E0591A54961
:103390009BB25E91A44935935F91A449002360914B
:1033A000A349029261916146A44A6291A2495D9447
:1033B0006397649665950F906691679269AF6BAE5F
:1033C0006DAD6FAC9E4A9A1892041168D95151683C
:1033D0009951918BE950118CE150908C71A9C85092
:1033E000108D73A9C850D06A75A9585011004C317E
:1033F000088877A9C850106D79A95850916D7BAA9B
:1034000099500433082BDDD1B0231B061B688D4C6B
:10341000369363688C4A3793A3688C4E3893238A1B
:103420008B4D9BB23993A38A9BB23A93A3693B938A
:10343000237FDBB23C93238E9BB23D93636B3E9321
:10344000A36B3F93E36B4093236C4193636C429374
:10345000A36C439393889BB2449313899BB2459387
:10346000137CDBB24693137DDBB24793138B9BB285
:103470004893137FDBB24993764B998889B24A917E
:10348000198989B24B91197CC9B24C91197DC9B285
:103490004D91198B89B24E91197FC9B24F91316804
:1034A00050917168519129685291287AC1B2C02017
:1034B00053910001285804930A9503920023002891
:1034C00000D1654B05220D939446002390AD88A84A
:1034D00098A962465A43614FD21957685F511768DD
:1034E0001F5097685F50D768A0AA9F500433202BC5
:1034F000EFD18123DB055A6854921A7BD2B25592E0
:103500005A8B92B256921A8B92B257925A6A58922A
:103510009A6A1B8859929BB25A93C0231B069B68D8
:103520005B93019B032B06D19022C023D2055168E7
:103530009B050B4353604A4B4A4A1B681D00089386
:103540000023503DE9180968D1500433502BF9D1BC
:10355000454B089A1A60099B18791A788023DB0575
:103560001B685B0A5340984300D065E67DAA5378F8
:1035700092781B011343112B03DD3C4B186001F0C3
:103580005DFB9023DB055A68394B01201A6000F07F
:1035900061FFFCF795FD002000F05CFF354B1B78C8
:1035A000002B00D0A2E034494B685B0676D4334B45
:1035B00033484A6800685C6A844216D131484968D9
:1035C0000068884204D006994240096811420CD133
:1035D0002D4A596812685140C90006D45B685A40A8
:1035E00053015BD533689B0758D5284A2848136890
:1035F0001B09D91C814269D84CE0C046000020401C
:103600000000104000E100E020ED00E000009040EC
:103610000000304054003040580030405C003040E2
:1036200000004040280030402C0030403400304042
:1036300048003040500030406000304005004040BD
:10364000281000000000F0400000D04010E000E032
:10365000000070400000E04051E5CC1A080000A0D6
:103660000000041054070020500700201400002020
:10367000180000200C000020FCE100E000ED00E05C
:103680004C0800205408002050080020100000487A
:10369000FFFF0F0013681B099942FBD87DAA5378DE
:1036A00092781B011343112B05DD012001F0C6FAAE
:1036B0000A4A0B4B1A60019B032B00D0BCE59022F9
:1036C000D205536807490B405360B5E506495B18BE
:1036D000116809099942FBD1E0E7C046CCBCECFC7B
:1036E00014000020FFFFFFCF0400F0FF0123E44F90
:1036F000E4493B830023BB813B61C858EA1804338B
:103700001060502BF9D1089ADF4B40211A606A46AD
:1037100052185C9B128880A89A80069B119A1A60A6
:1037200000239A0011581A00069DC03292000133FE
:10373000A950082BF5D15D9B129A78211A600F9B36
:10374000139A6FAD1A628023149ADB051A60159ADA
:103750005A60169A9A60179ADA601A9A9A61199AB8
:103760005A61189A1A610C9A9A620C9ADA611B9A39
:10377000DA621C9A1A631D9A5A636A4652181288B2
:103780000C311A871F9A5A64059B209ADA606A46A0
:103790005218059B127804311A776A465218059B15
:1037A000128804319A846A4652185E9B127804315A
:1037B0001A706A4652185F9B127808311A70059B7E
:1037C000259A1A636A465218609B127804311A705F
:1037D0006A465218059B128804311A876A465218A5
:1037E000619B127804311A706A4652181278629BF3
:1037F00004311A706A465218639B127804311A70A9
:103800006A465218649B127804311A706A4652183C
:10381000659B127804311A706A465218669B1278BA
:103820000C311A70029B2E9A1A60029B2F9A5A60D2
:103830006A465218029B127804311A746A4652186A
:10384000029B127804311A756A465218679B1278E7
:103850000431DA776A465218029B128808311A85B9
:10386000029B349ADA626A465218029B12881A86C0
:1038700069AA0023944661460C20844A59589A1834
:103880009204116068A90918C95808305160029162
:1038900068A90918C95A9183595B118471A95958AB
:1038A00089B2918473A9595889B2118575A959585B
:1038B000D16277A9595888B211004C31088079A992
:1038C000595811657BA9595804339165082BD2D1F9
:1038D000B023369A1B061A60519B509A73600023DE
:1038E000B3603260379AE4216260389A8820A2601F
:1038F0006A4652181288043122826A465218128887
:103900000831A2823B9A4000A2616A46521812789E
:10391000043122773E9A052662633F9A90ADA263F6
:10392000409AE263419A2264429A6264439AA26492
:103930006A4652186946128809182286039A09882D
:103940000430918069460918039A0988043011816E
:1039500069460918039A09780430117469460918F0
:10396000039A0978922411754021489A03988A4352
:103970000283684664000019039A007804341077C3
:1039800068460019049A008804349080684600193B
:10399000049A00880434108168460019049A00785B
:1039A0000434107468460019049A007888AC1075C5
:1039B0004E9A9E208A43049940000A83694609185A
:1039C000049A0978103011770A9A52991160694661
:1039D00009180A9A09781172C0220D980A991201E1
:1039E000885098A832005A432949521859595160B1
:1039F0001959116019589160A0A959580433D16020
:103A0000202BEFD18123549ADB05AA215A606A4604
:103A100049005218127804311A736A4652181288F3
:103A200004315A836A46521812880C311A83589A04
:103A30005A62599A9A626A46521812881A80C023AA
:103A40005B9A1B069A600F9B1B7A002B43D10E9B3F
:103A5000002B40D009223B891340934204D180239C
:103A6000DB05DB699B0533D411223B89134093426C
:103A700010D18023DB05DB695B0529D40AE0C04651
:103A800000001048540700205007002028100000B4
:103A9000080000A021223B891340934204D18023D7
:103AA000DB05DB691B0513D441223B89134093429C
:103AB00004D18023DB05DB69DB0409D481223B8947
:103AC0001340934207D18023DB05DB699B0402D5B9
:103AD0000122214B5A60019B032B05D19022D20574
:103AE00053681E490B4053606A462C215218099BAB
:103AF00012781A72019B032B2BD100202B3901F075
:103B000065F90B9BDB0701D4FFF796FB00F06AFB1E
:103B100068AB588002331B885B0515D4104B1B889B
:103B20001B0711D590220F4BD20511691B685B1A38
:103B30001B021B12D9175B184B40202B04DC1369A6
:103B40002D3311698B42FCD21522074B1A70FFF7F7
:103B500073FB00210800D2E7FCE100E0FFFFFFCF8C
:103B6000C0000020180000200000C040F8B58127E8
:103B7000FF057B6805005B0329D4174C0800FDF79F
:103B800003FC061C2800FDF7AFFB7B68051C1B0629
:103B90009B0F012B03D07B681B069B0F05D1812354
:103BA000DB055B685B0315D40C4CFE21301C8905DA
:103BB000FCF73CFD211C061C281CFCF7C9FE011C5F
:103BC000301CFDF7B5F80649FDF7B2F8F8BD8E24B4
:103BD000E405D3E7034CE8E700720A47002C2147CD
:103BE0009A99194000031547F7B581250191ED0514
:103BF0006A680700520337D4254C1800FDF7C4FB50
:103C0000061C3800FDF770FB6B681B069B0F012B31
:103C100003D06B681B069B0F05D18123DB055B6816
:103C20005B0324D41B4C019B211C022B21D1FCF7EC
:103C30008FFE1949FDF77CF8FFF75CF9174A184B1E
:103C4000FDF7E8FB0D00FE2104008905301CFCF7A0
:103C5000EDFCFFF74FF902000B0020002900FEF7F2
:103C60001DFBFFF799F9FEBD8E24E405C5E70D4C59
:103C7000D9E7FCF76DFE0849FDF75AF8FFF73AF966
:103C800002000B0005480649FEF788FDDAE7C0464A
:103C900000720A47002C21479A9919403333333375
:103CA0003333E33F0003154710B5002302220121FF
:103CB000FFF79AFF0149FDF73BF810BD1F858B40C8
:103CC00010B5002302220121FFF78EFF0349FDF703
:103CD0002FF80349FDF74CF910BDC0460080C843DA
:103CE00000808543812310B50324DB0501785A68E1
:103CF0002140BD348901A2430A435A604278596881
:103D00000F2A22D18022D2030A435A60812303243E
:103D10000179DB055A6821402D340901A2430A4389
:103D20005A608278082A1AD18022596812010A43FF
:103D30005A608121C2780320C9054B6802400A48B5
:103D40001202034013434B6010BD084C214007246E
:103D500059605968224024195200A143D4E75A6897
:103D600003490A40E4E7C046FFFCFFFFFFFFBFFF37
:103D7000FFF7FFFF8123DB0501280FD15A6819885F
:103D8000520204D5802252000A431A8005E0042220
:103D90000A431A801A881043188070471988102225
:103DA000F2E70722812102400E20C9054B6852002C
:103DB000834318001043486070478123DB0519884E
:103DC000012803D102220A431A80704740220A4385
:103DD00002211A801A888A43F6E78123DB058022B4
:103DE0001988012802D10A431A807047914319802B
:103DF000FBE78123DB051B7C1840431E9841C0B2C2
:103E000070478123DB055A68520302D4D88A80B2F6
:103E10007047988AFBE770B504000D00FFF7F1FFCB
:103E20008123DB055B6800B29B059B0F022C04D14C
:103E30002A002100FFF7D8FE70BD012CF8D0032C1A
:103E400002D0A21F012A03D81900FFF78FFEF3E763
:103E5000052C03D12900FFF727FFEDE7042C04D13F
:103E60001A002900FFF72CFFE6E7FDF73DFAE3E72C
:103E7000006870470078C0B270470000024A138A99
:103E8000DB07FCD57047C04600001040084B10B55A
:103E90001A68084B9A4209D13F22074B40061A8103
:103EA000000C2E3A98611A80FFF7E8FF10BDC0465B
:103EB00014000020CCBCECFC00001040084B10B5F6
:103EC0001A68084B9A4209D13F22074B80081A8191
:103ED0000C3A986119641A80FFF7D0FF10BDC046F4
:103EE00014000020CCBCECFC00001040F7B50190A1
:103EF00001790468002931D18022D2055368A34397
:103F00005360019B20251E68802300226D42DB0543
:103F100034000120D44004420BD0D4B2072A26D862
:103F200097000E30B840DC6A84430800B840044370
:103F3000DC62013204351A2AEAD1019B5A798023C6
:103F4000DB05012A3AD1DA683243DA60019A9279C4
:103F5000012A36D19A6816439E60F7BD0629D0D152
:103F60008022D2055368002123435360C9E727000C
:103F7000083F072F08D80F27AF401C6BBC430F002A
:103F8000AF403C431C63D4E7103C072C0AD82F00F9
:103F90000F20203FB8405C6B84430800B8400443C6
:103FA0005C63C6E72F000F20403FB8401C8F84435E
:103FB0000800B8400443A4B21C87BAE7DA68B243E9
:103FC000C3E79A68B2439A60C7E7002303600371AE
:103FD0008371437170478023DB051B681840431EC3
:103FE0009841C0B270478023DB05D86370478023B7
:103FF000DB05186470478023DB05012901D1D863F4
:1040000070471864FCE78022D2051368584010609E
:1040100070478023DB05986270478023DB055B6A6D
:104020001840431E9841C0B27047C02380211B0630
:104030001A680A431A601A688A431A6070470000B7
:10404000410010B50D48FCF793F80D4B421E9A4203
:1040500011D80223FF280AD80138C0B2094A0A49F8
:104060001374136800020B401843106010BD5B000E
:10407000DBB24008EEE702230120EFE70024F40062
:10408000FFFD000000004040FF00FFFF70B504008E
:1040900001264068FFF7D4FF0420104B21785A68AE
:1040A0003140890082430A435A604022A57818684B
:1040B0003540AD019043284318608020E1781A68AC
:1040C0003140C90182430A431A6061781A68613835
:1040D000014082430A431A6070BDC0460000404060
:1040E000012303700633437000238370C370014BB8
:1040F0004360704740420F00054B02225968002878
:1041000002D00A435A60704791435960FBE7C046AA
:1041100000004040014B98607047C046000040409E
:10412000014B98687047C0460000404010B51F24FE
:10413000044902000B682240A343180010430860A2
:1041400010BDC04600004040034B1B7B1840431E7F
:104150009841C0B27047C0460000404010B50420EE
:10416000FFF7F2FF012800D010BD014B9B68F6E776
:10417000000040400222084B084819780A430849C9
:104180001A700A7BD20704D502211A788A431A7062
:1041900070470268F5E7C046800040408C00404010
:1041A000000040400322044902400B680348D20546
:1041B000184010430860704700004040FFFF7FFE3A
:1041C000014BD8627047C04600004040044B1A6A59
:1041D000012902D110431862704782431A62FBE73B
:1041E00000009040274B1A7A274BD2B21B899BB212
:1041F000002A3CD10920184009384242504111227E
:1042000040011A40112A01D12F32104321221A40B5
:10421000212A01D18022104341221A40412A02D191
:1042200080225200104381221A40812A02D180222A
:104230009200104302221900FF321140914202D134
:104240008022D20010431900104A1140914202D13D
:1042500080221201104305221A40052A01D11022A2
:104260001043DB439B0701D108231843704701200B
:10427000022AFBD00018042AF8D0083A50425041D4
:104280008000F3E7000090400000104801040000A7
:10429000054B0122196B002802D00A431A637047AC
:1042A00091431963FBE7C04600003040F8B54A4C23
:1042B0000500236B01681B0700D56DE00901474825
:1042C000FBF756FFC3099AB2A284454ADB010130CD
:1042D0001340C01A400880B23F2802D93F233F381C
:1042E0001840032760263F4BC0B218703E4B2A7916
:1042F00018783A405201B043104318700120697990
:10430000227F39404901B2430A432277AA791978BA
:104310000240BA400730814311431970217F814325
:104320000A432277EA79002A38D102211A788A438F
:104330001A70227F8A43012022772A7A216B160085
:10434000C2402A4F06407602394031432163216B37
:10435000274E0240314012020A432263697A226BDF
:104360000E00C140234F06403A40B6033243226359
:10437000226B214E01403240C90311432163AA7AC6
:10438000197802400F301201814311431970237FC5
:1043900083431A432277F8BDC90090E7022A0CD163
:1043A0000420197811431970197881431970217FFD
:1043B0000A432277227F8243BDE702211A780A430B
:1043C0001A700422187810431870207F0143217757
:1043D000217F0A43AFE7C046000030400000127A58
:1043E00080FF7F00280030402C003040FFFDFFFFA1
:1043F000FFFEFFFFFFBFFFFFFF7FFFFF014B18889E
:10440000C0B2704700003040054B002805DA5B68F9
:104410001840431E9841C0B270471B8BF8E7C04656
:1044200000003040034B9B8F1840431E9841C0B2A0
:104430007047C0460000304007220240382004493F
:10444000D2000B7883431800104308707047C046B1
:1044500034003040054B04221969002802D00A4379
:104460001A61704791431961FBE7C04600ED00E017
:1044700010B5094C002801D0012805D000F08CF8B7
:104480000138C000205805E000F086F80138C0006F
:104490002018406810BDC0460084051070B5012189
:1044A00086B006000920FFF791FE00F075F81C4B5E
:1044B00001388000C3580024019300F06DF8194BB7
:1044C0000138800001ADC35828002B71AC716C71AC
:1044D000FFF70CFD00F060F8134B01388000C35863
:1044E000019300F059F8114B01388000C35828009F
:1044F0002B71FFF7FBFC0125032303A80371437114
:1045000003728471C471447285720396FFF7CEFE04
:104510002000FFF791FF2800FFF7BAFE06B070BD3C
:10452000FC830510F8830510F4830510F083051053
:10453000034B10B51B68002B00D0984710BDC04638
:104540001403002007B51020FFF76CFF002809D1E5
:1045500007BDFFF753FF6B46D871073301211800E1
:10456000FFF7E6FF1020FFF74FFF0028F1D0EFE73D
:1045700010B503F026FE10BD10B503F022FE10BDED
:1045800010B50A00002103F037FE10BD0122014BD7
:104590001A70704718030020014B1878C0B270479A
:1045A0001803002010B50F4C01280AD0002801D0B4
:1045B00002280ED0FFF7F0FF431E0C20584320586E
:1045C00006E0FFF7E9FF431E0C205843201840681F
:1045D00010BDFFF7E1FF431E0C20584320188068F0
:1045E000F6E7C046088405100369C268934201D803
:1045F00080681B18013B981A7047F7B58368C76835
:104600000500406801911400DE1BC019964204D9D0
:1046100003F0D7FD3C19EC60F7BD3200019903F0BF
:10462000D0FD019BA41B99192200686803F0C9FD05
:10463000F1E70023F7B506001700C5680191009364
:104640003369B4689D421FD2013B5B1B641BBC42B3
:1046500000D93C009C4200D91C0073682200581904
:10466000019903F0AEFD009B2D191B190093019BCE
:104670003F1B1B190193B3689D4200D10025F560D3
:10468000002FDDD10098FEBD1B19DDE7032310B517
:10469000104C114A23616361104BA261E3618023D6
:1046A00022660F4ADB002362626600231022A362A7
:1046B0006362E3622367E3666367A26609490A48A7
:1046C00003F0A2FD0949200003F09EFD2023A37101
:1046D00010BDC046A4070020148405102903002043
:1046E000190300201D840510AB070020218405104C
:1046F000F8B516001822451C55434243164B0F00CF
:10470000ED189B18DC6A012C12D0002C03D0022C6F
:104710001BD000240AE02800FFF766FFB04205D353
:10472000320039002800FFF768FF34002000F8BD90
:104730002800FFF759FF3400864200D90400220008
:1047400039002800FFF759FFF0E732002800FFF793
:1047500070FF0400EAE7C046A4070020F8B50B4B41
:1047600005001B780E001700002B01D1FFF78EFF0C
:10477000EFF31084012181F310883A003100280002
:10478000FFF7B6FF84F31088F8BDC046A4070020E9
:10479000F7B5164C0193237805000F001600002B87
:1047A00001D1FFF773FF2369AB421CD9EFF31082ED
:1047B000012181F31088002D0CD01823691C594366
:1047C0006B43675061184E600199E318196200212C
:1047D0009962596218235D43089B6419E36282F36E
:1047E00010880020FEBD01204042FBE7A407002006
:1047F00010B5FFF74BFF10BD826810B5040040688C
:10480000531C834205D820688154A360E3680133B8
:10481000E360A26863689A4209D121682069FFF7C2
:104820009DFFA368984203D001235B42E36010BD63
:104830000023A360FBE70000F0B504001D000800A2
:10484000012685B00A9F00910192019B98421AD2DD
:104850000296AE4200D2029501230B9A1A400392AF
:104860000CD1002F0AD00B9B20269B0703D51036B6
:10487000002D00D0103E029BBB4209D3E368002B01
:1048800010DA05B0F0BD0199FBF772FC0136DCE7E8
:1048900031002000FFF7B0FFE368013F002BEDDBA4
:1048A000002FE8D10126012D03D9013D019B5E4374
:1048B000F9E731000098FBF75BFC019B8342F5D9D7
:1048C00000983100FBF754FC310005000098FBF71D
:1048D000D5FC104B00912000595DFFF78DFFE36878
:1048E000002B05DB30000199FBF742FC061EE7D1E7
:1048F000039B002BC5D0002FC3D0029BBB42C0D26C
:1049000020212000FFF778FFE368013F002BF2DA57
:10491000B7E7C04628840510F0B59FB00EAB0993E9
:1049200040230A930023150007900B930D900C93DE
:104930000B784C1C002B07D10C9B0393002B00DD44
:1049400004E10C981FB0F0BD252B00D0F8E0002743
:104950000220082202314E1E33782B2B18D00DD89E
:10496000232B17D000240A22337819003039092963
:1049700012D85443303C01361C19F5E72D2B04D0D6
:10498000302BEFD107430131E5E701231F43FAE75D
:104990000423FBE71743F6E7002203922E2B0DD1E9
:1049A0000A21013632781300303B092B06D8039BCD
:1049B00001364B43303BD3180393F3E7317804229D
:1049C0000B009343682B01D10136F7E7642928D007
:1049D00009D8582917D063291DD025290AD109A83B
:1049E000FFF70AFF06E0732900D190E007D870298D
:1049F00000D19DE0711C0C9B002B99DA9CE7752976
:104A00007CD07829F6D1296801970B1D2B60039B78
:104A10000094102279E02B6819681A1D2A60C9B227
:104A2000DDE72B681A1D1B682A60DA1798180493B3
:104A3000012350400593092847DC039B059A069300
:104A4000934200D20692002C06D0049B002B02DB7E
:104A500004231F4200D0013CBB0702D5039B002B5F
:104A600004D001231F4201D1002C3ED10C9B002B0E
:104A7000C0DB049B002B3CDA2D215B42049309A888
:104A8000FFF7BAFE0C9B002BB4DB03233B40022B49
:104A90000FD1039B002B0CD1002C68D0069BA342A6
:104AA00007D2302109A8FFF7A7FE0C9B013C002B81
:104AB000F2DA0C9B002B9DDB0A22039B04990197E1
:104AC000009409A8FFF7B8FE94E70A21FBF7DAFB88
:104AD000059B0133AEE7202109A8FFF78DFE0C9B53
:104AE000013C002BC2DB002CC3D0069BA342F2D3B7
:104AF000BCE704231F42C5D02B21C0E70A22296846
:104B000001970B1D2B60039B00940968D9E72B6864
:104B10001A1D2A601C6821780134002900D169E738
:104B200009A8FFF769FE0C9B0393002BF3DA61E7FA
:104B300029680B1D2B60002301930833009368E75D
:104B4000190009A8FFF758FE210054E70B9A002A24
:104B500003D00EA90798FFF701FE0C9B03930B9B54
:104B60000493049A039B944663440C93E9E600245F
:104B7000A2E70EB403B503AB02CB01AA0193FFF782
:104B8000CBFE02B008BC03B01847704770477047AF
:104B9000704770477047704770477047704770475D
:104BA0007047704770470000002210B5104B995CA9
:104BB000C9B2002917D11C2A14DC022021249854E0
:104BC000501C1C54901C193C1C54D01C19549B188C
:104BD000802290219BB252021343C905CB60CB685F
:104BE0001342FCD110BD995C01315218D2B2DEE7FC
:104BF00029070020002330B50E4AD15CC9B2002934
:104C000013D11C2B08DC02243525D4545C1C15550B
:104C10009C1C03331055D1540222074B1A703332B7
:104C20005A7000229870DA7030BDD15C01315B1887
:104C3000DBB2E2E729070020000A002010B5104B84
:104C400000280AD0802290219BB252021343C9054A
:104C5000CB60CB681342FCD110BD042198789A78C0
:104C60009CB28A439A708022902152021443C90553
:104C7000C0B2CC60CC681442FCD19870ECE7C0465E
:104C8000000A0020012330B5264A0324117A85B09A
:104C90000B4313720022244B1A60FFF7A3FA6B46F2
:104CA000023318801A88002A03D1013CE4B2002C98
:104CB000F3D11A881F2A32D91B885B0510D401ACA6
:104CC0002000FEF739FA6278A37812011A43174BD5
:104CD0001B681B0711D4112A02DD0120FFF7AEFF6C
:104CE0000122134B1A70FBF714FABFF34F8F114ACE
:104CF000114BDA60BFF34F8FFEE790250F4CED05A7
:104D000028692368283B1B1A1B02002BE8DD112AA7
:104D100002DD0120FFF792FF23686B60E0E70120CE
:104D200005B030BD0000204014000020C00000206D
:104D30000C0000200400FA0500ED00E0180000203F
:104D400070B5FFF79FFF012817D1002314481549BC
:104D5000154C1A188A4216D3002314481449154CCE
:104D60001A188A4213D30021134B144A934212D3C8
:104D70000021134B134A93420FD3134B83F308883C
:104D800002F0C0FD70BDE55804331560E1E7E55859
:104D900004331560E4E702C3E8E702C3EBE7C0466B
:104DA00044090020000A0020C890051008000020D7
:104DB000340000209C900510C0000020CC02002090
:104DC000CC020020440900200060002070B58AB0A9
:104DD00003AC05000E0019224349200003F0F1F94D
:104DE0006846FEF7A9F9002D60D044233F4AA3731B
:104DF000117A433B0B4313724C23E3722C3B237217
:104E000092336374573B2375394B3A4A1B68190C2C
:104E1000914208D17020E17D1B018143E175E17D64
:104E200003400B43E375344B1B68190C914208D1C6
:104E3000302061791B0181436171617903400B432B
:104E400063712E4B1B68190C914207D10321E27D3F
:104E50000B408A43E275E27D1343E3750422E37A53
:104E600069469343E3726B465B78897893400B43C2
:104E7000112B06DDE37D1A43E275E07DC0B2FFF73A
:104E8000B9FE802390222404240C5B021C43D2052B
:104E9000D460D1681942FCD16B466A465B7892783F
:104EA0001B011343112B01DDFFF77EFE144B1A8B00
:104EB000002AFCD001221A8316329A8100221A613C
:104EC000964207D090231021DB0518691A694240E9
:104ED0000A42FBD0002D02D015220A4B1A700A4A52
:104EE0000A4B1A600AB070BD1C82051000002040F9
:104EF000E807001055AA0000E4070010B0070010F2
:104F0000000010480000C040CCBCECFC14000020A5
:104F10000822C021F8B53F4B3F4D9A803F4A090413
:104F2000136AFF202B400B43C0211362136A09064A
:104F30001B021B0A0B431362C02292009446384B9B
:104F400064469A58374E82433F38024360461A50AF
:104F50001A58C0203240000202431A51C122FF27D2
:104F600092009C58BC433F3F3C439C509C583F3769
:104F7000344004439C509C582C409C509C58240224
:104F8000240A0C439C500832944664469A58324096
:104F900002431A511A59C0242A4024042243644669
:104FA0001A511A591202120A0A431A51C4229200C3
:104FB000944664469A58324002431A511A59C02402
:104FC0002A402404224364461A511A591202120A32
:104FD0000A431A51C52292009C58BC432700C024A2
:104FE0002743C0249F509F5824043E40304398508C
:104FF000985805402C439C5098580002000A0143E1
:10500000995001210800FFF7E1FE074A074B1A6299
:1050100062B6F8BD00001040FFFF00FF00ED00E0A9
:1050200000E100E0FF00FFFF66000E00000090407E
:105030007047FEE7704710B5FEF756F810BD10B583
:105040000020FFF715FAFEF7E8FF0400012809D158
:105050000020FFF70DFAFEF7DCFF2000FFF7A2FAB1
:10506000FEF7D1FF10BD10B5FFF76CFA10BD10B5FB
:1050700008F008FB10BD0000F0B51E2489B00B4DF0
:105080000B4B6C440222210028002380FEF797F886
:105090000122084B290000931000052304F04DFC69
:1050A000061E09D04724200009B0F0BDB408002036
:1050B0000F18000066080020A823E74F9B0102227A
:1050C000210038002380FEF77AF8E44B3A00188874
:1050D000E34B04960593102303930C3B0293023B8E
:1050E00001960093012104F009FC0028DAD1C823BD
:1050F00002225B01210028002380FEF760F80122D4
:10510000D84B290000931000052304F016FC061E5E
:10511000C8D1AC2302229B01210038002380FEF776
:105120004EF8D04B3A001888CF4B049605931023C5
:1051300003930B3B0293053300930196083B012137
:1051400004F0DCFB0028ADD1C84B0222210028006E
:105150002380FEF734F80122C54B2900009310008C
:10516000052304F0EAFB061E00D09BE7C14B022298
:10517000210038002380FEF722F8BD4B3A00188842
:10518000BD4B04960593102303930B3B02930D3301
:1051900000930196023B012104F0B0FB002800D0EF
:1051A00080E7B64B0222210028002380FEF707F893
:1051B0000122B34E290000960F23100004F0BDFB1E
:1051C000051E00D06EE7AF4B02222100380023807D
:1051D000FDF7F5FFAC4B30880593102303930B3B91
:1051E000029305330495019500933A00083B012191
:1051F00004F084FB051E00D054E7A44B02222100DA
:1052000038002380FDF7DBFFA14B30880593102386
:1052100003930B3B029305330093093B04950195DF
:105220003A00190004F06AFB051E00D03AE7994BDA
:105230000222210038002380FDF7C1FF964B308801
:105240000593102303930B3B029305330093093B13
:10525000049501953A00190004F050FB002800D095
:1052600020E77D4F1E358D4B6D440222290038000A
:105270002B80FDF7A4FF824B10221888884B012455
:10528000059300230493019308330392009302943F
:10529000053B3A00210004F031FB061E00D001E777
:1052A000804B0222290038002B80FDF788FF744BC9
:1052B0003A0018887C4B0496059310230393083B0F
:1052C000019600930294033B210004F017FB061E95
:1052D00000D0E7E6754B0222290038002B80FDF74D
:1052E0006EFF674B3A001888714B049605931023A4
:1052F0000393083B019600930294063B210004F0BF
:10530000FDFA061E00D0CDE66A4B022229003800C5
:105310002B80FDF754FF5A4B3A001888664B0496D1
:10532000059310230393083B0093029401962300F6
:10533000210004F0E3FA002800D0B3E65F4B02221C
:1053400029005F482B80FDF73AFF5E4B2200009357
:105350005B490723200004F0F0FA061E00D0A1E606
:10536000594B0222290038002B80FDF728FF554BAE
:105370003A001888554B04960593102303930B3B72
:1053800002930533009301962300210004F0B6FA3E
:10539000002800D086E64E4B0222290048482B8088
:1053A000FDF70DFF4B4B2200009345490A232000D7
:1053B00004F0C3FA061E00D074E6AD2302229B015E
:1053C000290038002B80FDF7FAFE424B3A0018887E
:1053D000414B04940593102303930B3B0293153325
:1053E00000930196BE33210004F088FA002800D013
:1053F00058E63A4B0222290031482B80FDF7DFFEA8
:10540000374B220000932E490D23200004F095FA1B
:10541000061E00D046E6334B0222290038002B80BE
:10542000FDF7CDFE2E4B3A0018882F4B04960593BE
:10543000102303930B3B0293053300930196083B23
:10544000210004F05BFA002800D02BE6024D1D3449
:10545000264B6C4402224BE06E08002066080020B8
:10546000840800206A0800207E080020011900003E
:1054700058080020102B00008E08002002190000A0
:105480008C080020202B000096080020212B000013
:1054900080080020222B000060080020232B000041
:1054A00088080020242B00009E080020252B0000E7
:1054B0009A080020262B0000A008002003190000F5
:1054C000B408002068080020302B00009408002059
:1054D000041900005E080020920800200519000051
:1054E00062080020502B000064080020512B0000AF
:1054F000210028002380FDF762FE784B784E1022B1
:10550000308805930023039204930B3A01930A33E6
:10551000029200932A00083B012104F0EFF9071ED4
:1055200000D0BFE56F4B0222210028002380FDF749
:1055300046FE6D4B30880593102303930B3B02937B
:1055400005330497019700932A00083B012104F0DA
:10555000D5F9071E00D0A5E5644B022221002800E2
:105560002380FDF72CFE624B3088059310230393B4
:105570000B3B029305330093093B049701972A00E4
:10558000190004F0BBF9071E00D08BE5594B02222D
:10559000210028002380FDF712FE574B3088059329
:1055A000102303930B3B029305330093093B0497AD
:1055B00001972A00190004F0A1F9002800D071E534
:1055C0004E4F4F4B0222210038002380FDF7F7FD9C
:1055D00001224C4B390000931000032304F0ADF975
:1055E000061E00D05EE5484B0222210028002380E1
:1055F000FDF7E5FD434B2A001888444B04960593BC
:10560000102303930B3B029305330093093B019650
:10561000190004F073F9002800D043E53C4B022246
:10562000210038002380FDF7CAFD0122394B3900E3
:1056300000931000032304F080F9061E00D031E52A
:10564000354B0222210028002380FDF7B8FD314BA5
:105650002A001888314B04960593102303930B3BC3
:105660000293053300930196073B012104F046F9AC
:10567000002800D016E52A4B0222210038002380A2
:10568000FDF79DFD0122274E3900009603231000EF
:1056900004F053F9071E00D004E5AE2321009B015E
:1056A000022228002380FDF78AFD1F4B30880593D6
:1056B000102303930B3B0293053300930497019748
:1056C000053B2A00012104F019F9041E00D0E9E489
:1056D00016490020FFF74DFAE5E4C0465C080020BB
:1056E00062080020522B00005A080020532B0000B3
:1056F0008A080020542B00009C080020B4080020D9
:105700000619000082080020602B00006C080020B1
:105710000719000090080020702B00008608002068
:105720000819000098080020B208002038840510ED
:1057300010B5012086B000F01DFC1623094A6B4409
:10574000188009491088094A09881288022403939D
:10575000002302940193009480B204F013F906B080
:1057600010BDC0460A0900206608002084080020F9
:1057700030B585B000F056FE0022104C104D238845
:1057800029009BB21000FFF7F4F9638829009BB24F
:1057900001220020FFF7EDF90A4B18880A4B80B26E
:1057A0001A880A4B19880394002310240193029449
:1057B000009404F0E7F805B030BDC046260900208B
:1057C0005E8405100A0900208E0800205808002079
:1057D0001FB500F027FE094B00241888084B80B243
:1057E0001A88084B1988084B0194039310230293DD
:1057F00000930F3B04F0C6F804B010BD0A09002066
:105800008E08002058080020260900201FB504003B
:10581000084A0B0010880849084A0988128803942E
:105820000024029300930194012380B204F0AAF8AB
:1058300004B010BD0A0900205E0800209208002074
:105840001FB5094B01241888084B80B21A88084BF1
:105850001988084B0294039300230094019304F0E9
:1058600091F804B010BDC0460A0900209608002037
:105870008C080020EC080020802010B5C00386B002
:10588000FEF7A9FB17236B44012811D118700A4AAF
:105890000A4910880A4A09881288012403930023C0
:1058A00002940193009480B204F06CF806B010BD2D
:1058B00000221A70EBE7C0460A0900208C0800207D
:1058C00080080020802010B5000486B0FEF783FB1E
:1058D00017236B44012811D118700A4A0A4910880D
:1058E0000A4A098812880124039300230294019331
:1058F000009480B204F046F806B010BD00221A7081
:10590000EBE7C0460A0900208C0800206008002050
:1059100010B5114B86B01A7804AB1A700F4A1049B3
:10592000127809885A700F4A062412789A700E4A23
:105930001278DA700D4A12781A710D4A10880D4AE1
:1059400080B21288039305230293002300940193ED
:1059500004F018F806B010BD16090020F408002065
:10596000900800201709002009090020FA080020EB
:105970000A0900208608002010B586B000F02AFC35
:1059800000F07AFC17230124084A09491088094AC3
:105990006B441C70128809880393002302940193BE
:1059A000009480B203F0EEFF06B010BD0A0900209B
:1059B0005E080020920800202D4B10B51A880400C4
:1059C000002A0BD12B4B1B8801339C420DD1FFF7D2
:1059D000AFFE29490020FFF7CCF805E0188880B217
:1059E00003F0C6FF0028EDD010BD244B1B88013307
:1059F0009C4203D1FFF7BCFE2149EBE7214B1B88FA
:105A000001339C4203D1FFF71BFF1F49E2E71F4B05
:105A10001B8801339C4203D1FFF72EFF1C49D9E7B5
:105A20001C4B1B8801339C4203D1FFF74BFF1A49E3
:105A3000D0E71A4B1B8801339C4203D1184B1949FC
:105A40001B78C7E7184B1B8801339C4207D11749C5
:105A50000020FFF78EF8FFF78FFF1549BAE7154BC7
:105A60001B8801339C42BFD1FFF752FF1249B1E7B7
:105A70000A090020840800206D8405108E0800208B
:105A80007B840510960800208A8405108008002079
:105A90009D84051060080020AE8405109408002045
:105AA0000C090020B984051092080020C384051059
:105AB000D7840510B2080020EC840510F0B5AB4B7C
:105AC00085B01B8814000233984209D11378012B4A
:105AD00002D1A74A137001E0002BFAD005B0F0BD47
